{
  "_format": "hh3-artifact-1",
  "contractName": "CosellRegistry",
  "sourceName": "contracts/CosellRegistry.sol",
  "abi": [
    {
      "inputs": [],
      "name": "EmptyCurrency",
      "type": "error"
    },
    {
      "inputs": [],
      "name": "EmptyProductId",
      "type": "error"
    },
    {
      "inputs": [
        {
          "internalType": "uint16",
          "name": "supplied",
          "type": "uint16"
        },
        {
          "internalType": "uint16",
          "name": "max",
          "type": "uint16"
        }
      ],
      "name": "InvalidCommissionBps",
      "type": "error"
    },
    {
      "inputs": [],
      "name": "InvalidCoseller",
      "type": "error"
    },
    {
      "inputs": [],
      "name": "InvalidWholesaler",
      "type": "error"
    },
    {
      "inputs": [
        {
          "internalType": "bytes32",
          "name": "listingId",
          "type": "bytes32"
        }
      ],
      "name": "ListingAlreadyExists",
      "type": "error"
    },
    {
      "inputs": [
        {
          "internalType": "bytes32",
          "name": "listingId",
          "type": "bytes32"
        }
      ],
      "name": "ListingNotActive",
      "type": "error"
    },
    {
      "inputs": [
        {
          "internalType": "bytes32",
          "name": "listingId",
          "type": "bytes32"
        }
      ],
      "name": "ListingNotFound",
      "type": "error"
    },
    {
      "inputs": [
        {
          "internalType": "address",
          "name": "caller",
          "type": "address"
        }
      ],
      "name": "NotWholesaler",
      "type": "error"
    },
    {
      "anonymous": false,
      "inputs": [
        {
          "indexed": true,
          "internalType": "bytes32",
          "name": "listingId",
          "type": "bytes32"
        },
        {
          "indexed": true,
          "internalType": "address",
          "name": "by",
          "type": "address"
        }
      ],
      "name": "ListingDeactivated",
      "type": "event"
    },
    {
      "anonymous": false,
      "inputs": [
        {
          "indexed": true,
          "internalType": "bytes32",
          "name": "listingId",
          "type": "bytes32"
        },
        {
          "indexed": true,
          "internalType": "string",
          "name": "productId",
          "type": "string"
        },
        {
          "indexed": true,
          "internalType": "address",
          "name": "wholesaler",
          "type": "address"
        },
        {
          "indexed": false,
          "internalType": "address",
          "name": "coseller",
          "type": "address"
        },
        {
          "indexed": false,
          "internalType": "uint16",
          "name": "commissionBps",
          "type": "uint16"
        },
        {
          "indexed": false,
          "internalType": "string",
          "name": "currency",
          "type": "string"
        }
      ],
      "name": "ListingRegistered",
      "type": "event"
    },
    {
      "inputs": [],
      "name": "BPS_DENOMINATOR",
      "outputs": [
        {
          "internalType": "uint16",
          "name": "",
          "type": "uint16"
        }
      ],
      "stateMutability": "view",
      "type": "function"
    },
    {
      "inputs": [],
      "name": "MAX_COMMISSION_BPS",
      "outputs": [
        {
          "internalType": "uint16",
          "name": "",
          "type": "uint16"
        }
      ],
      "stateMutability": "view",
      "type": "function"
    },
    {
      "inputs": [
        {
          "internalType": "string",
          "name": "productId",
          "type": "string"
        },
        {
          "internalType": "address",
          "name": "wholesaler",
          "type": "address"
        },
        {
          "internalType": "address",
          "name": "coseller",
          "type": "address"
        }
      ],
      "name": "computeListingId",
      "outputs": [
        {
          "internalType": "bytes32",
          "name": "",
          "type": "bytes32"
        }
      ],
      "stateMutability": "pure",
      "type": "function"
    },
    {
      "inputs": [
        {
          "internalType": "uint256",
          "name": "grossAmount",
          "type": "uint256"
        },
        {
          "internalType": "bytes32",
          "name": "listingId",
          "type": "bytes32"
        }
      ],
      "name": "computeSplit",
      "outputs": [
        {
          "internalType": "uint256",
          "name": "cosellerShare",
          "type": "uint256"
        },
        {
          "internalType": "uint256",
          "name": "wholesalerShare",
          "type": "uint256"
        }
      ],
      "stateMutability": "view",
      "type": "function"
    },
    {
      "inputs": [
        {
          "internalType": "bytes32",
          "name": "listingId",
          "type": "bytes32"
        }
      ],
      "name": "deactivate",
      "outputs": [],
      "stateMutability": "nonpayable",
      "type": "function"
    },
    {
      "inputs": [
        {
          "internalType": "bytes32",
          "name": "listingId",
          "type": "bytes32"
        }
      ],
      "name": "getListing",
      "outputs": [
        {
          "components": [
            {
              "internalType": "string",
              "name": "productId",
              "type": "string"
            },
            {
              "internalType": "address",
              "name": "wholesaler",
              "type": "address"
            },
            {
              "internalType": "address",
              "name": "coseller",
              "type": "address"
            },
            {
              "internalType": "uint16",
              "name": "commissionBps",
              "type": "uint16"
            },
            {
              "internalType": "string",
              "name": "currency",
              "type": "string"
            },
            {
              "internalType": "uint64",
              "name": "registeredAt",
              "type": "uint64"
            },
            {
              "internalType": "bool",
              "name": "active",
              "type": "bool"
            }
          ],
          "internalType": "struct CosellRegistry.Listing",
          "name": "",
          "type": "tuple"
        }
      ],
      "stateMutability": "view",
      "type": "function"
    },
    {
      "inputs": [
        {
          "internalType": "address",
          "name": "coseller",
          "type": "address"
        }
      ],
      "name": "listingsForCoseller",
      "outputs": [
        {
          "internalType": "bytes32[]",
          "name": "",
          "type": "bytes32[]"
        }
      ],
      "stateMutability": "view",
      "type": "function"
    },
    {
      "inputs": [
        {
          "internalType": "string",
          "name": "productId",
          "type": "string"
        }
      ],
      "name": "listingsForProduct",
      "outputs": [
        {
          "internalType": "bytes32[]",
          "name": "",
          "type": "bytes32[]"
        }
      ],
      "stateMutability": "view",
      "type": "function"
    },
    {
      "inputs": [
        {
          "internalType": "string",
          "name": "productId",
          "type": "string"
        },
        {
          "internalType": "address",
          "name": "wholesaler",
          "type": "address"
        },
        {
          "internalType": "address",
          "name": "coseller",
          "type": "address"
        },
        {
          "internalType": "uint16",
          "name": "commissionBps",
          "type": "uint16"
        },
        {
          "internalType": "string",
          "name": "currency",
          "type": "string"
        }
      ],
      "name": "register",
      "outputs": [
        {
          "internalType": "bytes32",
          "name": "listingId",
          "type": "bytes32"
        }
      ],
      "stateMutability": "nonpayable",
      "type": "function"
    }
  ],
  "bytecode": "0x608060405234801561000f575f80fd5b506110ae8061001d5f395ff3fe608060405234801561000f575f80fd5b5060043610610090575f3560e01c8063bc8de9e811610063578063bc8de9e814610113578063d95ab4ab1461013b578063dd2174c61461014e578063e1a4521814610161578063e62977f81461017d575f80fd5b8063175c0d161461009457806322eee84c146100bd578063408b4e81146100d2578063509f056a146100f2575b5f80fd5b6100a76100a2366004610b18565b610186565b6040516100b49190610b72565b60405180910390f35b6100d06100cb366004610b18565b61038c565b005b6100e56100e0366004610c2a565b610470565b6040516100b49190610c4a565b610105610100366004610cd2565b6104d9565b6040519081526020016100b4565b610126610121366004610d33565b610511565b604080519283526020830191909152016100b4565b6100e5610149366004610d53565b610713565b61010561015c366004610d92565b610784565b61016a61271081565b60405161ffff90911681526020016100b4565b61016a61138881565b6040805160e08101825260608082525f60208301819052928201839052808201839052608082015260a0810182905260c08101919091525f82815260208190526040808220815160e081019092528054829082906101e390610e3a565b80601f016020809104026020016040519081016040528092919081815260200182805461020f90610e3a565b801561025a5780601f106102315761010080835404028352916020019161025a565b820191905f5260205f20905b81548152906001019060200180831161023d57829003601f168201915b505050918352505060018201546001600160a01b03908116602083015260028301549081166040830152600160a01b900461ffff1660608201526003820180546080909201916102a990610e3a565b80601f01602080910402602001604051908101604052809291908181526020018280546102d590610e3a565b80156103205780601f106102f757610100808354040283529160200191610320565b820191905f5260205f20905b81548152906001019060200180831161030357829003601f168201915b50505091835250506004919091015467ffffffffffffffff8082166020840152600160401b90910460ff16151560409092019190915260a0820151919250165f03610386576040516345abffa960e01b8152600481018490526024015b60405180910390fd5b92915050565b5f8181526020819052604081206004810154909167ffffffffffffffff90911690036103ce576040516345abffa960e01b81526004810183905260240161037d565b6004810154600160401b900460ff166103fd576040516303da82cf60e61b81526004810183905260240161037d565b60018101546001600160a01b0316331461042c5760405163e9c1bc7f60e01b815233600482015260240161037d565b60048101805468ff000000000000000019169055604051339083907fce286a6a8c1f8ebbd59685de8ae4780820f0cb1f7cdfbe87decae5ff98d62aa9905f90a35050565b6001600160a01b0381165f908152600260209081526040918290208054835181840281018401909452808452606093928301828280156104cd57602002820191905f5260205f20905b8154815260200190600101908083116104b9575b50505050509050919050565b5f848484846040516020016104f19493929190610e72565b604051602081830303815290604052805190602001209050949350505050565b5f805f805f8581526020019081526020015f206040518060e00160405290815f8201805461053e90610e3a565b80601f016020809104026020016040519081016040528092919081815260200182805461056a90610e3a565b80156105b55780601f1061058c576101008083540402835291602001916105b5565b820191905f5260205f20905b81548152906001019060200180831161059857829003601f168201915b505050918352505060018201546001600160a01b03908116602083015260028301549081166040830152600160a01b900461ffff16606082015260038201805460809092019161060490610e3a565b80601f016020809104026020016040519081016040528092919081815260200182805461063090610e3a565b801561067b5780601f106106525761010080835404028352916020019161067b565b820191905f5260205f20905b81548152906001019060200180831161065e57829003601f168201915b50505091835250506004919091015467ffffffffffffffff8082166020840152600160401b90910460ff16151560409092019190915260a0820151919250165f036106dc576040516345abffa960e01b81526004810185905260240161037d565b6060810151612710906106f39061ffff1687610eb6565b6106fd9190610ecd565b92506107098386610eec565b9150509250929050565b606060018383604051610727929190610eff565b908152604080519182900360209081018320805480830285018301909352828452919083018282801561077757602002820191905f5260205f20905b815481526020019060010190808311610763575b5050505050905092915050565b5f6001600160a01b03861615806107a457506001600160a01b0386163314155b156107c25760405163318b6c8160e21b815260040160405180910390fd5b6001600160a01b03851615806107e95750856001600160a01b0316856001600160a01b0316145b156108075760405163f44dcb6b60e01b815260040160405180910390fd5b61ffff8416158061081d575061138861ffff8516115b156108495760405163095df11d60e41b815261ffff85166004820152611388602482015260440161037d565b5f87900361086a5760405163d6c4099960e01b815260040160405180910390fd5b5f82900361088b57604051630560d24960e11b815260040160405180910390fd5b610897888888886104d9565b5f8181526020819052604090206004015490915067ffffffffffffffff16156108d657604051631263165760e11b81526004810182905260240161037d565b6040518060e0016040528089898080601f0160208091040260200160405190810160405280939291908181526020018383808284375f920191909152505050908252506001600160a01b0380891660208084019190915290881660408084019190915261ffff881660608401528051601f87018390048302810183019091528581526080909201919086908690819084018382808284375f92018290525093855250505067ffffffffffffffff4216602080840191909152600160409384015284825281905220815181906109ab9082610f6e565b5060208201516001820180546001600160a01b039283166001600160a01b03199091161790556040830151600283018054606086015161ffff16600160a01b026001600160b01b0319909116929093169190911791909117905560808201516003820190610a199082610f6e565b5060a08201516004909101805460c0909301511515600160401b0268ffffffffffffffffff1990931667ffffffffffffffff90921691909117919091179055604051600190610a6b908a908a90610eff565b9081526040805191829003602090810183208054600181810183555f9283528383209091018690556001600160a01b03808b1683526002845293822080549182018155825291902001839055871690610ac7908a908a90610eff565b6040518091039020827fdc18653cc45529df7c1b83abb300b41303680806789d6ba94532cadaa7c9759f88888888604051610b05949392919061102e565b60405180910390a4979650505050505050565b5f60208284031215610b28575f80fd5b5035919050565b5f81518084525f5b81811015610b5357602081850181015186830182015201610b37565b505f602082860101526020601f19601f83011685010191505092915050565b602081525f825160e06020840152610b8e610100840182610b2f565b9050602084015160018060a01b038082166040860152806040870151166060860152505061ffff60608501511660808401526080840151601f198483030160a0850152610bdb8282610b2f565b91505060a0840151610bf960c085018267ffffffffffffffff169052565b5060c084015180151560e0850152509392505050565b80356001600160a01b0381168114610c25575f80fd5b919050565b5f60208284031215610c3a575f80fd5b610c4382610c0f565b9392505050565b602080825282518282018190525f9190848201906040850190845b81811015610c8157835183529284019291840191600101610c65565b50909695505050505050565b5f8083601f840112610c9d575f80fd5b50813567ffffffffffffffff811115610cb4575f80fd5b602083019150836020828501011115610ccb575f80fd5b9250929050565b5f805f8060608587031215610ce5575f80fd5b843567ffffffffffffffff811115610cfb575f80fd5b610d0787828801610c8d565b9095509350610d1a905060208601610c0f565b9150610d2860408601610c0f565b905092959194509250565b5f8060408385031215610d44575f80fd5b50508035926020909101359150565b5f8060208385031215610d64575f80fd5b823567ffffffffffffffff811115610d7a575f80fd5b610d8685828601610c8d565b90969095509350505050565b5f805f805f805f60a0888a031215610da8575f80fd5b873567ffffffffffffffff80821115610dbf575f80fd5b610dcb8b838c01610c8d565b9099509750879150610ddf60208b01610c0f565b9650610ded60408b01610c0f565b955060608a0135915061ffff82168214610e05575f80fd5b90935060808901359080821115610e1a575f80fd5b50610e278a828b01610c8d565b989b979a50959850939692959293505050565b600181811c90821680610e4e57607f821691505b602082108103610e6c57634e487b7160e01b5f52602260045260245ffd5b50919050565b838582376bffffffffffffffffffffffff19606093841b811694909101938452911b166014820152602801919050565b634e487b7160e01b5f52601160045260245ffd5b808202811582820484141761038657610386610ea2565b5f82610ee757634e487b7160e01b5f52601260045260245ffd5b500490565b8181038181111561038657610386610ea2565b818382375f9101908152919050565b634e487b7160e01b5f52604160045260245ffd5b601f821115610f6957805f5260205f20601f840160051c81016020851015610f475750805b601f840160051c820191505b81811015610f66575f8155600101610f53565b50505b505050565b815167ffffffffffffffff811115610f8857610f88610f0e565b610f9c81610f968454610e3a565b84610f22565b602080601f831160018114610fcf575f8415610fb85750858301515b5f19600386901b1c1916600185901b178555611026565b5f85815260208120601f198616915b82811015610ffd57888601518255948401946001909101908401610fde565b508582101561101a57878501515f19600388901b60f8161c191681555b505060018460011b0185555b505050505050565b6001600160a01b038516815261ffff841660208201526060604082018190528101829052818360808301375f818301608090810191909152601f909201601f19160101939250505056fea26469706673582212208d866f30143dcacfa8c0ed1b48e974e21e3dea7a15c15705ac9cd3f70f30bcc564736f6c63430008180033",
  "linkReferences": {},
  "deployedLinkReferences": {},
  "immutableReferences": {},
  "inputSourceName": "project/contracts/CosellRegistry.sol",
  "buildInfoId": "solc-0_8_24-e03b9b5ceea9564b0c645b4e3b74787f7e9eb05f"
}