{
  "_format": "hh3-artifact-1",
  "contractName": "CosellEscrow",
  "sourceName": "contracts/CosellEscrow.sol",
  "abi": [
    {
      "inputs": [
        {
          "internalType": "contract IERC20",
          "name": "_usdc",
          "type": "address"
        },
        {
          "internalType": "contract CosellRegistry",
          "name": "_registry",
          "type": "address"
        },
        {
          "internalType": "address",
          "name": "_releaseAuth",
          "type": "address"
        }
      ],
      "stateMutability": "nonpayable",
      "type": "constructor"
    },
    {
      "inputs": [
        {
          "internalType": "bytes32",
          "name": "depositId",
          "type": "bytes32"
        }
      ],
      "name": "DepositNotFound",
      "type": "error"
    },
    {
      "inputs": [
        {
          "internalType": "bytes32",
          "name": "depositId",
          "type": "bytes32"
        }
      ],
      "name": "DepositNotPending",
      "type": "error"
    },
    {
      "inputs": [],
      "name": "InvalidRegistry",
      "type": "error"
    },
    {
      "inputs": [],
      "name": "InvalidReleaseAuth",
      "type": "error"
    },
    {
      "inputs": [],
      "name": "InvalidUsdc",
      "type": "error"
    },
    {
      "inputs": [
        {
          "internalType": "bytes32",
          "name": "listingId",
          "type": "bytes32"
        }
      ],
      "name": "ListingNotActive",
      "type": "error"
    },
    {
      "inputs": [
        {
          "internalType": "address",
          "name": "caller",
          "type": "address"
        },
        {
          "internalType": "address",
          "name": "expected",
          "type": "address"
        }
      ],
      "name": "NotBuyer",
      "type": "error"
    },
    {
      "inputs": [
        {
          "internalType": "address",
          "name": "caller",
          "type": "address"
        }
      ],
      "name": "NotReleaseAuth",
      "type": "error"
    },
    {
      "inputs": [],
      "name": "ReentrancyGuardReentrantCall",
      "type": "error"
    },
    {
      "inputs": [
        {
          "internalType": "uint64",
          "name": "depositedAt",
          "type": "uint64"
        },
        {
          "internalType": "uint64",
          "name": "refundUnlockAt",
          "type": "uint64"
        }
      ],
      "name": "RefundTooEarly",
      "type": "error"
    },
    {
      "inputs": [
        {
          "internalType": "address",
          "name": "token",
          "type": "address"
        }
      ],
      "name": "SafeERC20FailedOperation",
      "type": "error"
    },
    {
      "inputs": [],
      "name": "ZeroAmount",
      "type": "error"
    },
    {
      "anonymous": false,
      "inputs": [
        {
          "indexed": true,
          "internalType": "bytes32",
          "name": "depositId",
          "type": "bytes32"
        },
        {
          "indexed": true,
          "internalType": "bytes32",
          "name": "listingId",
          "type": "bytes32"
        },
        {
          "indexed": true,
          "internalType": "address",
          "name": "buyer",
          "type": "address"
        },
        {
          "indexed": false,
          "internalType": "uint256",
          "name": "grossAmount",
          "type": "uint256"
        }
      ],
      "name": "Deposited",
      "type": "event"
    },
    {
      "anonymous": false,
      "inputs": [
        {
          "indexed": true,
          "internalType": "bytes32",
          "name": "depositId",
          "type": "bytes32"
        },
        {
          "indexed": true,
          "internalType": "address",
          "name": "buyer",
          "type": "address"
        },
        {
          "indexed": false,
          "internalType": "uint256",
          "name": "grossAmount",
          "type": "uint256"
        }
      ],
      "name": "Refunded",
      "type": "event"
    },
    {
      "anonymous": false,
      "inputs": [
        {
          "indexed": true,
          "internalType": "address",
          "name": "previous",
          "type": "address"
        },
        {
          "indexed": true,
          "internalType": "address",
          "name": "next",
          "type": "address"
        }
      ],
      "name": "ReleaseAuthUpdated",
      "type": "event"
    },
    {
      "anonymous": false,
      "inputs": [
        {
          "indexed": true,
          "internalType": "bytes32",
          "name": "depositId",
          "type": "bytes32"
        },
        {
          "indexed": true,
          "internalType": "bytes32",
          "name": "listingId",
          "type": "bytes32"
        },
        {
          "indexed": false,
          "internalType": "address",
          "name": "wholesaler",
          "type": "address"
        },
        {
          "indexed": false,
          "internalType": "address",
          "name": "coseller",
          "type": "address"
        },
        {
          "indexed": false,
          "internalType": "uint256",
          "name": "wholesalerShare",
          "type": "uint256"
        },
        {
          "indexed": false,
          "internalType": "uint256",
          "name": "cosellerShare",
          "type": "uint256"
        }
      ],
      "name": "Released",
      "type": "event"
    },
    {
      "inputs": [],
      "name": "REFUND_DELAY",
      "outputs": [
        {
          "internalType": "uint64",
          "name": "",
          "type": "uint64"
        }
      ],
      "stateMutability": "view",
      "type": "function"
    },
    {
      "inputs": [
        {
          "internalType": "bytes32",
          "name": "listingId",
          "type": "bytes32"
        },
        {
          "internalType": "uint256",
          "name": "grossAmount",
          "type": "uint256"
        }
      ],
      "name": "deposit",
      "outputs": [
        {
          "internalType": "bytes32",
          "name": "depositId",
          "type": "bytes32"
        }
      ],
      "stateMutability": "nonpayable",
      "type": "function"
    },
    {
      "inputs": [
        {
          "internalType": "bytes32",
          "name": "depositId",
          "type": "bytes32"
        }
      ],
      "name": "getDeposit",
      "outputs": [
        {
          "components": [
            {
              "internalType": "bytes32",
              "name": "listingId",
              "type": "bytes32"
            },
            {
              "internalType": "address",
              "name": "buyer",
              "type": "address"
            },
            {
              "internalType": "uint256",
              "name": "grossAmount",
              "type": "uint256"
            },
            {
              "internalType": "uint64",
              "name": "depositedAt",
              "type": "uint64"
            },
            {
              "internalType": "enum CosellEscrow.State",
              "name": "state",
              "type": "uint8"
            }
          ],
          "internalType": "struct CosellEscrow.Escrowed",
          "name": "",
          "type": "tuple"
        }
      ],
      "stateMutability": "view",
      "type": "function"
    },
    {
      "inputs": [
        {
          "internalType": "bytes32",
          "name": "depositId",
          "type": "bytes32"
        }
      ],
      "name": "refund",
      "outputs": [],
      "stateMutability": "nonpayable",
      "type": "function"
    },
    {
      "inputs": [],
      "name": "registry",
      "outputs": [
        {
          "internalType": "contract CosellRegistry",
          "name": "",
          "type": "address"
        }
      ],
      "stateMutability": "view",
      "type": "function"
    },
    {
      "inputs": [
        {
          "internalType": "bytes32",
          "name": "depositId",
          "type": "bytes32"
        }
      ],
      "name": "release",
      "outputs": [],
      "stateMutability": "nonpayable",
      "type": "function"
    },
    {
      "inputs": [],
      "name": "releaseAuth",
      "outputs": [
        {
          "internalType": "address",
          "name": "",
          "type": "address"
        }
      ],
      "stateMutability": "view",
      "type": "function"
    },
    {
      "inputs": [
        {
          "internalType": "address",
          "name": "next",
          "type": "address"
        }
      ],
      "name": "setReleaseAuth",
      "outputs": [],
      "stateMutability": "nonpayable",
      "type": "function"
    },
    {
      "inputs": [],
      "name": "usdc",
      "outputs": [
        {
          "internalType": "contract IERC20",
          "name": "",
          "type": "address"
        }
      ],
      "stateMutability": "view",
      "type": "function"
    }
  ],
  "bytecode": "0x60c060405234801561000f575f80fd5b506040516200118e3803806200118e8339810160408190526100309161010d565b60017f9b779b17422d0df92223018b32b4d1fa46e071723d6817e2486d003becc55f00556001600160a01b03831661007b57604051637d477f3560e01b815260040160405180910390fd5b6001600160a01b0382166100a2576040516311a1e69760e01b815260040160405180910390fd5b6001600160a01b0381166100c95760405163bbd1fda760e01b815260040160405180910390fd5b6001600160a01b0392831660805290821660a0525f80546001600160a01b03191691909216179055610157565b6001600160a01b038116811461010a575f80fd5b50565b5f805f6060848603121561011f575f80fd5b835161012a816100f6565b602085015190935061013b816100f6565b604085015190925061014c816100f6565b809150509250925092565b60805160a051610fe5620001a95f395f818161017a015281816101f00152818161051e01526105c001525f818160e1015281816103c20152818161065d0152818161069701526108a10152610fe55ff3fe608060405234801561000f575f80fd5b5060043610610090575f3560e01c806370402bb91161006357806370402bb9146101305780637249fbb6146101425780637a86983f146101555780637b10399914610175578063e671c1561461019c575f80fd5b8063190da595146100945780631de26e16146100bb5780633e413bee146100dc57806367d42a8b1461011b575b5f80fd5b61009e6212750081565b6040516001600160401b0390911681526020015b60405180910390f35b6100ce6100c9366004610c42565b6101af565b6040519081526020016100b2565b6101037f000000000000000000000000000000000000000000000000000000000000000081565b6040516001600160a01b0390911681526020016100b2565b61012e610129366004610c62565b61044c565b005b5f54610103906001600160a01b031681565b61012e610150366004610c62565b61073d565b610168610163366004610c62565b610929565b6040516100b29190610c8d565b6101037f000000000000000000000000000000000000000000000000000000000000000081565b61012e6101aa366004610d08565b610a0f565b5f6101b8610ab1565b815f036101d857604051631f2a200560e01b815260040160405180910390fd5b604051630bae068b60e11b8152600481018490525f907f00000000000000000000000000000000000000000000000000000000000000006001600160a01b03169063175c0d16906024015f60405180830381865afa15801561023c573d5f803e3d5ffd5b505050506040513d5f823e601f3d908101601f191682016040526102639190810190610e5b565b90508060c0015161028f576040516303da82cf60e61b8152600481018590526024015b60405180910390fd5b600280546001019081905560408051602081018790526bffffffffffffffffffffffff193360601b169181019190915260548101859052426074820152609481019190915260b40160408051808303601f19018152828252805160209182012060a08401835287845233828501908152848401888152426001600160401b03908116606088019081525f6080890181815286825260019788905297902088518155935195840180546001600160a01b0319166001600160a01b03909716969096179095559051600280840191909155935160038301805467ffffffffffffffff19811692909316918217815595519398509194929368ffffffffffffffffff1990911690911790600160401b9084908111156103ad576103ad610c79565b02179055506103ea9150506001600160a01b037f000000000000000000000000000000000000000000000000000000000000000016333086610acc565b336001600160a01b031684837fa8a466fab5b6316935798da23932e7d4ad57c5dac826443c8c6f34c0a48727468660405161042791815260200190565b60405180910390a45061044660015f80516020610f9083398151915255565b92915050565b610454610ab1565b5f546001600160a01b031633146104805760405163206d6f7360e21b8152336004820152602401610286565b5f818152600160205260408120600381015490916001600160401b0390911690036104c15760405163087c619560e31b815260048101839052602401610286565b5f6003820154600160401b900460ff1660028111156104e2576104e2610c79565b1461050357604051639cd29bc960e01b815260048101839052602401610286565b8054604051630bae068b60e11b81525f916001600160a01b037f0000000000000000000000000000000000000000000000000000000000000000169163175c0d16916105559160040190815260200190565b5f60405180830381865afa15801561056f573d5f803e3d5ffd5b505050506040513d5f823e601f3d908101601f191682016040526105969190810190610e5b565b60028301548354604051631791bd3d60e31b8152600481019290925260248201529091505f9081907f00000000000000000000000000000000000000000000000000000000000000006001600160a01b03169063bc8de9e8906044016040805180830381865afa15801561060c573d5f803e3d5ffd5b505050506040513d601f19601f820116820180604052508101906106309190610f3a565b60038601805460ff60401b1916600160401b17905560208501519193509150610684906001600160a01b037f0000000000000000000000000000000000000000000000000000000000000000169083610b08565b60408301516106be906001600160a01b037f0000000000000000000000000000000000000000000000000000000000000000169084610b08565b835460208481015160408087015181516001600160a01b0393841681529216928201929092529081018390526060810184905286907f551c96d1b8143a1d008abd21e62f3429ca0a6ce2cd629267a3a83a35179932fe9060800160405180910390a35050505061073a60015f80516020610f9083398151915255565b50565b610745610ab1565b5f818152600160205260408120600381015490916001600160401b0390911690036107865760405163087c619560e31b815260048101839052602401610286565b5f6003820154600160401b900460ff1660028111156107a7576107a7610c79565b146107c857604051639cd29bc960e01b815260048101839052602401610286565b60018101546001600160a01b0316331461080c576001810154604051635eeea42160e01b81523360048201526001600160a01b039091166024820152604401610286565b60038101545f9061082a9062127500906001600160401b0316610f5c565b9050806001600160401b031642101561086f5760038201546040516314c789cd60e21b81526001600160401b0391821660048201529082166024820152604401610286565b60038201805460ff60401b191668020000000000000000179055600282015460018301546108ca906001600160a01b037f00000000000000000000000000000000000000000000000000000000000000008116911683610b08565b60018301546040518281526001600160a01b039091169085907ff552ca82e113ac3c539c3d617f29fcd19c172a0c75dad017555c9e109f7fe1839060200160405180910390a350505061073a60015f80516020610f9083398151915255565b6109576040805160a0810182525f808252602082018190529181018290526060810182905290608082015290565b5f828152600160208181526040808420815160a08101835281548152938101546001600160a01b0316928401929092526002808301549184019190915260038201546001600160401b03811660608501526080840191600160401b90910460ff16908111156109c8576109c8610c79565b60028111156109d9576109d9610c79565b81525050905080606001516001600160401b03165f036104465760405163087c619560e31b815260048101849052602401610286565b5f546001600160a01b03163314610a3b5760405163206d6f7360e21b8152336004820152602401610286565b6001600160a01b038116610a625760405163bbd1fda760e01b815260040160405180910390fd5b5f80546001600160a01b038381166001600160a01b0319831681178455604051919092169283917f856a6e85ac17b670168112b6461fea508331d5d8d43e6bd3e57e4db756e30af19190a35050565b610ab9610b42565b60025f80516020610f9083398151915255565b610ada848484846001610b73565b610b0257604051635274afe760e01b81526001600160a01b0385166004820152602401610286565b50505050565b610b158383836001610be0565b610b3d57604051635274afe760e01b81526001600160a01b0384166004820152602401610286565b505050565b5f80516020610f9083398151915254600203610b7157604051633ee5aeb560e01b815260040160405180910390fd5b565b6040516323b872dd60e01b5f8181526001600160a01b038781166004528616602452604485905291602083606481808c5af1925060015f51148316610bcf578383151615610bc3573d5f823e3d81fd5b5f883b113d1516831692505b604052505f60605295945050505050565b60405163a9059cbb60e01b5f8181526001600160a01b038616600452602485905291602083604481808b5af1925060015f51148316610c36578383151615610c2a573d5f823e3d81fd5b5f873b113d1516831692505b60405250949350505050565b5f8060408385031215610c53575f80fd5b50508035926020909101359150565b5f60208284031215610c72575f80fd5b5035919050565b634e487b7160e01b5f52602160045260245ffd5b815181526020808301516001600160a01b031690820152604080830151908201526060808301516001600160401b031690820152608082015160a082019060038110610ce757634e487b7160e01b5f52602160045260245ffd5b8060808401525092915050565b6001600160a01b038116811461073a575f80fd5b5f60208284031215610d18575f80fd5b8135610d2381610cf4565b9392505050565b634e487b7160e01b5f52604160045260245ffd5b60405160e081016001600160401b0381118282101715610d6057610d60610d2a565b60405290565b604051601f8201601f191681016001600160401b0381118282101715610d8e57610d8e610d2a565b604052919050565b5f82601f830112610da5575f80fd5b81516001600160401b03811115610dbe57610dbe610d2a565b6020610dd2601f8301601f19168201610d66565b8281528582848701011115610de5575f80fd5b5f5b83811015610e02578581018301518282018401528201610de7565b505f928101909101919091529392505050565b8051610e2081610cf4565b919050565b805161ffff81168114610e20575f80fd5b80516001600160401b0381168114610e20575f80fd5b80518015158114610e20575f80fd5b5f60208284031215610e6b575f80fd5b81516001600160401b0380821115610e81575f80fd5b9083019060e08286031215610e94575f80fd5b610e9c610d3e565b825182811115610eaa575f80fd5b610eb687828601610d96565b825250610ec560208401610e15565b6020820152610ed660408401610e15565b6040820152610ee760608401610e25565b6060820152608083015182811115610efd575f80fd5b610f0987828601610d96565b608083015250610f1b60a08401610e36565b60a0820152610f2c60c08401610e4c565b60c082015295945050505050565b5f8060408385031215610f4b575f80fd5b505080516020909101519092909150565b6001600160401b03818116838216019080821115610f8857634e487b7160e01b5f52601160045260245ffd5b509291505056fe9b779b17422d0df92223018b32b4d1fa46e071723d6817e2486d003becc55f00a264697066735822122030e3d2604b282d65a436904bc81f4a7ddabda0df91f9f5d76fa9e8e0432d4b3564736f6c63430008180033",
  "linkReferences": {},
  "deployedLinkReferences": {},
  "immutableReferences": {
    "1616": [
      {
        "length": 32,
        "start": 225
      },
      {
        "length": 32,
        "start": 962
      },
      {
        "length": 32,
        "start": 1629
      },
      {
        "length": 32,
        "start": 1687
      },
      {
        "length": 32,
        "start": 2209
      }
    ],
    "1620": [
      {
        "length": 32,
        "start": 378
      },
      {
        "length": 32,
        "start": 496
      },
      {
        "length": 32,
        "start": 1310
      },
      {
        "length": 32,
        "start": 1472
      }
    ]
  },
  "inputSourceName": "project/contracts/CosellEscrow.sol",
  "buildInfoId": "solc-0_8_24-8cc56e8ddd1ca99f28f4b15e0e28a2c19e149e87"
}